{
  "_format": "hh-sol-artifact-1",
  "contractName": "AMMFactory",
  "sourceName": "contracts/AMMFactory.sol",
  "abi": [
    {
      "anonymous": false,
      "inputs": [
        {
          "indexed": true,
          "internalType": "address",
          "name": "pool",
          "type": "address"
        },
        {
          "indexed": true,
          "internalType": "address",
          "name": "token1",
          "type": "address"
        },
        {
          "indexed": true,
          "internalType": "address",
          "name": "token2",
          "type": "address"
        }
      ],
      "name": "PoolCreated",
      "type": "event"
    },
    {
      "inputs": [
        {
          "internalType": "address",
          "name": "_token1",
          "type": "address"
        },
        {
          "internalType": "address",
          "name": "_token2",
          "type": "address"
        }
      ],
      "name": "createPool",
      "outputs": [],
      "stateMutability": "nonpayable",
      "type": "function"
    },
    {
      "inputs": [
        {
          "internalType": "address",
          "name": "",
          "type": "address"
        },
        {
          "internalType": "address",
          "name": "",
          "type": "address"
        }
      ],
      "name": "pools",
      "outputs": [
        {
          "internalType": "address",
          "name": "",
          "type": "address"
        }
      ],
      "stateMutability": "view",
      "type": "function"
    }
  ],
  "bytecode": "0x608060405234801561001057600080fd5b506130f0806100206000396000f3fe608060405234801561001057600080fd5b50600436106100365760003560e01c8063901754d71461003b578063e34336151461006b575b600080fd5b61005560048036038101906100509190610457565b610087565b60405161006291906104a2565b60405180910390f35b61008560048036038101906100809190610457565b6100c9565b005b60006020528160005260406000206020528060005260406000206000915091509054906101000a900473ffffffffffffffffffffffffffffffffffffffff1681565b600073ffffffffffffffffffffffffffffffffffffffff168273ffffffffffffffffffffffffffffffffffffffff16141561010357600080fd5b600073ffffffffffffffffffffffffffffffffffffffff168173ffffffffffffffffffffffffffffffffffffffff16141561013d57600080fd5b600073ffffffffffffffffffffffffffffffffffffffff166000808473ffffffffffffffffffffffffffffffffffffffff1673ffffffffffffffffffffffffffffffffffffffff16815260200190815260200160002060008373ffffffffffffffffffffffffffffffffffffffff1673ffffffffffffffffffffffffffffffffffffffff16815260200190815260200160002060009054906101000a900473ffffffffffffffffffffffffffffffffffffffff1673ffffffffffffffffffffffffffffffffffffffff161461021157600080fd5b6000828260405161022190610435565b61022c9291906104bd565b604051809103906000f080158015610248573d6000803e3d6000fd5b509050806000808573ffffffffffffffffffffffffffffffffffffffff1673ffffffffffffffffffffffffffffffffffffffff16815260200190815260200160002060008473ffffffffffffffffffffffffffffffffffffffff1673ffffffffffffffffffffffffffffffffffffffff16815260200190815260200160002060006101000a81548173ffffffffffffffffffffffffffffffffffffffff021916908373ffffffffffffffffffffffffffffffffffffffff160217905550806000808473ffffffffffffffffffffffffffffffffffffffff1673ffffffffffffffffffffffffffffffffffffffff16815260200190815260200160002060008573ffffffffffffffffffffffffffffffffffffffff1673ffffffffffffffffffffffffffffffffffffffff16815260200190815260200160002060006101000a81548173ffffffffffffffffffffffffffffffffffffffff021916908373ffffffffffffffffffffffffffffffffffffffff1602179055508173ffffffffffffffffffffffffffffffffffffffff168373ffffffffffffffffffffffffffffffffffffffff168273ffffffffffffffffffffffffffffffffffffffff167f9c5d829b9b23efc461f9aeef91979ec04bb903feb3bee4f26d22114abfc7335b60405160405180910390a4505050565b612b8b8061053083390190565b60008135905061045181610518565b92915050565b6000806040838503121561046a57600080fd5b600061047885828601610442565b925050602061048985828601610442565b9150509250929050565b61049c816104e6565b82525050565b60006020820190506104b76000830184610493565b92915050565b60006040820190506104d26000830185610493565b6104df6020830184610493565b9392505050565b60006104f1826104f8565b9050919050565b600073ffffffffffffffffffffffffffffffffffffffff82169050919050565b610521816104e6565b811461052c57600080fd5b5056fe60c06040523480156200001157600080fd5b5060405162002b8b38038062002b8b833981810160405281019062000037919062000214565b6040518060400160405280600981526020017f4c5020546f6b656e7300000000000000000000000000000000000000000000008152506040518060400160405280600281526020017f4c500000000000000000000000000000000000000000000000000000000000008152508160039080519060200190620000bb9291906200014d565b508060049080519060200190620000d49291906200014d565b5050508173ffffffffffffffffffffffffffffffffffffffff1660808173ffffffffffffffffffffffffffffffffffffffff1660601b815250508073ffffffffffffffffffffffffffffffffffffffff1660a08173ffffffffffffffffffffffffffffffffffffffff1660601b81525050505062000308565b8280546200015b9062000289565b90600052602060002090601f0160209004810192826200017f5760008555620001cb565b82601f106200019a57805160ff1916838001178555620001cb565b82800160010185558215620001cb579182015b82811115620001ca578251825591602001919060010190620001ad565b5b509050620001da9190620001de565b5090565b5b80821115620001f9576000816000905550600101620001df565b5090565b6000815190506200020e81620002ee565b92915050565b600080604083850312156200022857600080fd5b60006200023885828601620001fd565b92505060206200024b85828601620001fd565b9150509250929050565b6000620002628262000269565b9050919050565b600073ffffffffffffffffffffffffffffffffffffffff82169050919050565b60006002820490506001821680620002a257607f821691505b60208210811415620002b957620002b8620002bf565b5b50919050565b7f4e487b7100000000000000000000000000000000000000000000000000000000600052602260045260246000fd5b620002f98162000255565b81146200030557600080fd5b50565b60805160601c60a05160601c61282d6200035e6000396000818161065e0152818161073301528181610be80152610dab01526000818161089801528181610b3a01528181610cfb0152610fa0015261282d6000f3fe608060405234801561001057600080fd5b50600436106101425760003560e01c806395d89b41116100b8578063b9b4c4631161007c578063b9b4c463146103b1578063d21220a7146103cf578063dd62ed3e146103ed578063e9e2daf41461041d578063ec1ebd7a1461043b578063ee39e7a01461045957610142565b806395d89b41146102fb5780639c8f9f23146103195780639cd441da14610335578063a457c2d714610351578063a9059cbb1461038157610142565b806323b872dd1161010a57806323b872dd1461021357806325be124e146102435780632bec60fe14610261578063313ce5671461027d578063395093511461029b57806370a08231146102cb57610142565b806301e4b2d61461014757806304ce3c581461017757806306fdde03146101a7578063095ea7b3146101c557806318160ddd146101f5575b600080fd5b610161600480360381019061015c9190611d2b565b610477565b60405161016e9190612200565b60405180910390f35b610191600480360381019061018c9190611d2b565b610520565b60405161019e9190612200565b60405180910390f35b6101af61056e565b6040516101bc919061207e565b60405180910390f35b6101df60048036038101906101da9190611c9d565b610600565b6040516101ec9190612063565b60405180910390f35b6101fd610623565b60405161020a9190612200565b60405180910390f35b61022d60048036038101906102289190611c4e565b61062d565b60405161023a9190612063565b60405180910390f35b61024b61065c565b6040516102589190611fe8565b60405180910390f35b61027b60048036038101906102769190611da3565b610680565b005b610285610980565b604051610292919061221b565b60405180910390f35b6102b560048036038101906102b09190611c9d565b610989565b6040516102c29190612063565b60405180910390f35b6102e560048036038101906102e09190611be9565b6109c0565b6040516102f29190612200565b60405180910390f35b610303610a08565b604051610310919061207e565b60405180910390f35b610333600480360381019061032e9190611d02565b610a9a565b005b61034f600480360381019061034a9190611d67565b610cd7565b005b61036b60048036038101906103669190611c9d565b610efe565b6040516103789190612063565b60405180910390f35b61039b60048036038101906103969190611c9d565b610f75565b6040516103a89190612063565b60405180910390f35b6103b9610f98565b6040516103c69190612200565b60405180910390f35b6103d7610f9e565b6040516103e49190611fe8565b60405180910390f35b61040760048036038101906104029190611c12565b610fc2565b6040516104149190612200565b60405180910390f35b610425611049565b6040516104329190612200565b60405180910390f35b61044361104f565b6040516104509190612200565b60405180910390f35b610461611066565b60405161046e9190612200565b60405180910390f35b600080600554905060006006549050600060648661049591906122a8565b905084156104dc5780866104a99190612333565b836104b49190612252565b82846104c091906122d9565b6104ca91906122a8565b826104d59190612333565b9350610517565b80866104e89190612333565b826104f39190612252565b83836104ff91906122d9565b61050991906122a8565b836105149190612333565b93505b50505092915050565b6000811561054a576005546006548461053991906122d9565b61054391906122a8565b9050610568565b6006546005548461055b91906122d9565b61056591906122a8565b90505b92915050565b60606003805461057d906123ef565b80601f01602080910402602001604051908101604052809291908181526020018280546105a9906123ef565b80156105f65780601f106105cb576101008083540402835291602001916105f6565b820191906000526020600020905b8154815290600101906020018083116105d957829003601f168201915b5050505050905090565b60008061060b61107d565b9050610618818585611085565b600191505092915050565b6000600254905090565b60008061063861107d565b9050610645858285611250565b6106508585856112dc565b60019150509392505050565b7f000000000000000000000000000000000000000000000000000000000000000081565b6000831161068d57600080fd5b600060055490506000600654905060006064866106aa91906122a8565b9050831561081757600081876106c09190612333565b846106cb9190612252565b83856106d791906122d9565b6106e191906122a8565b836106ec9190612333565b905085811015610731576040517f08c379a0000000000000000000000000000000000000000000000000000000008152600401610728906120e0565b60405180910390fd5b7f000000000000000000000000000000000000000000000000000000000000000073ffffffffffffffffffffffffffffffffffffffff1663a9059cbb33836040518363ffffffff1660e01b815260040161078c92919061203a565b602060405180830381600087803b1580156107a657600080fd5b505af11580156107ba573d6000803e3d6000fd5b505050506040513d601f19601f820116820180604052508101906107de9190611cd9565b5086600560008282546107f19190612252565b92505081905550806006600082825461080a9190612333565b9250508190555050610978565b600081876108259190612333565b836108309190612252565b848461083c91906122d9565b61084691906122a8565b846108519190612333565b905085811015610896576040517f08c379a000000000000000000000000000000000000000000000000000000000815260040161088d906120e0565b60405180910390fd5b7f000000000000000000000000000000000000000000000000000000000000000073ffffffffffffffffffffffffffffffffffffffff1663a9059cbb33836040518363ffffffff1660e01b81526004016108f192919061203a565b602060405180830381600087803b15801561090b57600080fd5b505af115801561091f573d6000803e3d6000fd5b505050506040513d601f19601f820116820180604052508101906109439190611cd9565b5086600660008282546109569190612252565b92505081905550806005600082825461096f9190612333565b92505081905550505b505050505050565b60006012905090565b60008061099461107d565b90506109b58185856109a68589610fc2565b6109b09190612252565b611085565b600191505092915050565b60008060008373ffffffffffffffffffffffffffffffffffffffff1673ffffffffffffffffffffffffffffffffffffffff168152602001908152602001600020549050919050565b606060048054610a17906123ef565b80601f0160208091040260200160405190810160405280929190818152602001828054610a43906123ef565b8015610a905780601f10610a6557610100808354040283529160200191610a90565b820191906000526020600020905b815481529060010190602001808311610a7357829003601f168201915b5050505050905090565b6000610aa4610623565b9050808210610ab257600080fd5b610abb336109c0565b821115610ac757600080fd5b600081606484610ad791906122d9565b610ae191906122a8565b90506000606482600554610af591906122d9565b610aff91906122a8565b90506000606483600654610b1391906122d9565b610b1d91906122a8565b9050600082118015610b2f5750600081115b610b3857600080fd5b7f000000000000000000000000000000000000000000000000000000000000000073ffffffffffffffffffffffffffffffffffffffff1663a9059cbb33846040518363ffffffff1660e01b8152600401610b9392919061203a565b602060405180830381600087803b158015610bad57600080fd5b505af1158015610bc1573d6000803e3d6000fd5b505050506040513d601f19601f82011682018060405250810190610be59190611cd9565b507f000000000000000000000000000000000000000000000000000000000000000073ffffffffffffffffffffffffffffffffffffffff1663a9059cbb33836040518363ffffffff1660e01b8152600401610c4192919061203a565b602060405180830381600087803b158015610c5b57600080fd5b505af1158015610c6f573d6000803e3d6000fd5b505050506040513d601f19601f82011682018060405250810190610c939190611cd9565b50610c9e338661155d565b8160056000828254610cb09190612333565b925050819055508060066000828254610cc99190612333565b925050819055505050505050565b60006006541115610cf957610ced826001610520565b8114610cf857600080fd5b5b7f000000000000000000000000000000000000000000000000000000000000000073ffffffffffffffffffffffffffffffffffffffff166323b872dd3330856040518463ffffffff1660e01b8152600401610d5693929190612003565b602060405180830381600087803b158015610d7057600080fd5b505af1158015610d84573d6000803e3d6000fd5b505050506040513d601f19601f82011682018060405250810190610da89190611cd9565b507f000000000000000000000000000000000000000000000000000000000000000073ffffffffffffffffffffffffffffffffffffffff166323b872dd3330846040518463ffffffff1660e01b8152600401610e0693929190612003565b602060405180830381600087803b158015610e2057600080fd5b505af1158015610e34573d6000803e3d6000fd5b505050506040513d601f19601f82011682018060405250810190610e589190611cd9565b5060006006541415610e8657610e8133610e7c8385610e7791906122d9565b611734565b611a12565b610ec8565b610ec7336064600554606486610e9c91906122d9565b610ea691906122a8565b610eae610623565b610eb891906122d9565b610ec291906122a8565b611a12565b5b8160056000828254610eda9190612252565b925050819055508060066000828254610ef39190612252565b925050819055505050565b600080610f0961107d565b90506000610f178286610fc2565b905083811015610f5c576040517f08c379a0000000000000000000000000000000000000000000000000000000008152600401610f53906121c0565b60405180910390fd5b610f698286868403611085565b60019250505092915050565b600080610f8061107d565b9050610f8d8185856112dc565b600191505092915050565b60055481565b7f000000000000000000000000000000000000000000000000000000000000000081565b6000600160008473ffffffffffffffffffffffffffffffffffffffff1673ffffffffffffffffffffffffffffffffffffffff16815260200190815260200160002060008373ffffffffffffffffffffffffffffffffffffffff1673ffffffffffffffffffffffffffffffffffffffff16815260200190815260200160002054905092915050565b60065481565b600060065460055461106191906122a8565b905090565b600060065460055461107891906122d9565b905090565b600033905090565b600073ffffffffffffffffffffffffffffffffffffffff168373ffffffffffffffffffffffffffffffffffffffff1614156110f5576040517f08c379a00000000000000000000000000000000000000000000000000000000081526004016110ec906121a0565b60405180910390fd5b600073ffffffffffffffffffffffffffffffffffffffff168273ffffffffffffffffffffffffffffffffffffffff161415611165576040517f08c379a000000000000000000000000000000000000000000000000000000000815260040161115c90612100565b60405180910390fd5b80600160008573ffffffffffffffffffffffffffffffffffffffff1673ffffffffffffffffffffffffffffffffffffffff16815260200190815260200160002060008473ffffffffffffffffffffffffffffffffffffffff1673ffffffffffffffffffffffffffffffffffffffff168152602001908152602001600020819055508173ffffffffffffffffffffffffffffffffffffffff168373ffffffffffffffffffffffffffffffffffffffff167f8c5be1e5ebec7d5bd14f71427d1e84f3dd0314c0f7b2291e5b200ac8c7c3b925836040516112439190612200565b60405180910390a3505050565b600061125c8484610fc2565b90507fffffffffffffffffffffffffffffffffffffffffffffffffffffffffffffffff81146112d657818110156112c8576040517f08c379a00000000000000000000000000000000000000000000000000000000081526004016112bf90612120565b60405180910390fd5b6112d58484848403611085565b5b50505050565b600073ffffffffffffffffffffffffffffffffffffffff168373ffffffffffffffffffffffffffffffffffffffff16141561134c576040517f08c379a000000000000000000000000000000000000000000000000000000000815260040161134390612180565b60405180910390fd5b600073ffffffffffffffffffffffffffffffffffffffff168273ffffffffffffffffffffffffffffffffffffffff1614156113bc576040517f08c379a00000000000000000000000000000000000000000000000000000000081526004016113b3906120a0565b60405180910390fd5b6113c7838383611b72565b60008060008573ffffffffffffffffffffffffffffffffffffffff1673ffffffffffffffffffffffffffffffffffffffff1681526020019081526020016000205490508181101561144d576040517f08c379a000000000000000000000000000000000000000000000000000000000815260040161144490612140565b60405180910390fd5b8181036000808673ffffffffffffffffffffffffffffffffffffffff1673ffffffffffffffffffffffffffffffffffffffff16815260200190815260200160002081905550816000808573ffffffffffffffffffffffffffffffffffffffff1673ffffffffffffffffffffffffffffffffffffffff16815260200190815260200160002060008282546114e09190612252565b925050819055508273ffffffffffffffffffffffffffffffffffffffff168473ffffffffffffffffffffffffffffffffffffffff167fddf252ad1be2c89b69c2b068fc378daa952ba7f163c4a11628f55a4df523b3ef846040516115449190612200565b60405180910390a3611557848484611b77565b50505050565b600073ffffffffffffffffffffffffffffffffffffffff168273ffffffffffffffffffffffffffffffffffffffff1614156115cd576040517f08c379a00000000000000000000000000000000000000000000000000000000081526004016115c490612160565b60405180910390fd5b6115d982600083611b72565b60008060008473ffffffffffffffffffffffffffffffffffffffff1673ffffffffffffffffffffffffffffffffffffffff1681526020019081526020016000205490508181101561165f576040517f08c379a0000000000000000000000000000000000000000000000000000000008152600401611656906120c0565b60405180910390fd5b8181036000808573ffffffffffffffffffffffffffffffffffffffff1673ffffffffffffffffffffffffffffffffffffffff1681526020019081526020016000208190555081600260008282546116b69190612333565b92505081905550600073ffffffffffffffffffffffffffffffffffffffff168373ffffffffffffffffffffffffffffffffffffffff167fddf252ad1be2c89b69c2b068fc378daa952ba7f163c4a11628f55a4df523b3ef8460405161171b9190612200565b60405180910390a361172f83600084611b77565b505050565b6000808214156117475760009050611a0d565b60006001905060008390506000608082901c111561176e57608081901c9050604082901b91505b6000604082901c111561178a57604081901c9050602082901b91505b6000602082901c11156117a657602081901c9050601082901b91505b6000601082901c11156117c257601081901c9050600882901b91505b6000600882901c11156117de57600881901c9050600482901b91505b6000600482901c11156117fa57600481901c9050600282901b91505b6000600282901c111561180f57600182901b91505b6001828581611847577f4e487b7100000000000000000000000000000000000000000000000000000000600052601260045260246000fd5b048301901c91506001828581611886577f4e487b7100000000000000000000000000000000000000000000000000000000600052601260045260246000fd5b048301901c915060018285816118c5577f4e487b7100000000000000000000000000000000000000000000000000000000600052601260045260246000fd5b048301901c91506001828581611904577f4e487b7100000000000000000000000000000000000000000000000000000000600052601260045260246000fd5b048301901c91506001828581611943577f4e487b7100000000000000000000000000000000000000000000000000000000600052601260045260246000fd5b048301901c91506001828581611982577f4e487b7100000000000000000000000000000000000000000000000000000000600052601260045260246000fd5b048301901c915060018285816119c1577f4e487b7100000000000000000000000000000000000000000000000000000000600052601260045260246000fd5b048301901c9150611a0882838681611a02577f4e487b7100000000000000000000000000000000000000000000000000000000600052601260045260246000fd5b04611b7c565b925050505b919050565b600073ffffffffffffffffffffffffffffffffffffffff168273ffffffffffffffffffffffffffffffffffffffff161415611a82576040517f08c379a0000000000000000000000000000000000000000000000000000000008152600401611a79906121e0565b60405180910390fd5b611a8e60008383611b72565b8060026000828254611aa09190612252565b92505081905550806000808473ffffffffffffffffffffffffffffffffffffffff1673ffffffffffffffffffffffffffffffffffffffff1681526020019081526020016000206000828254611af59190612252565b925050819055508173ffffffffffffffffffffffffffffffffffffffff16600073ffffffffffffffffffffffffffffffffffffffff167fddf252ad1be2c89b69c2b068fc378daa952ba7f163c4a11628f55a4df523b3ef83604051611b5a9190612200565b60405180910390a3611b6e60008383611b77565b5050565b505050565b505050565b6000818310611b8b5781611b8d565b825b905092915050565b600081359050611ba4816127b2565b92915050565b600081359050611bb9816127c9565b92915050565b600081519050611bce816127c9565b92915050565b600081359050611be3816127e0565b92915050565b600060208284031215611bfb57600080fd5b6000611c0984828501611b95565b91505092915050565b60008060408385031215611c2557600080fd5b6000611c3385828601611b95565b9250506020611c4485828601611b95565b9150509250929050565b600080600060608486031215611c6357600080fd5b6000611c7186828701611b95565b9350506020611c8286828701611b95565b9250506040611c9386828701611bd4565b9150509250925092565b60008060408385031215611cb057600080fd5b6000611cbe85828601611b95565b9250506020611ccf85828601611bd4565b9150509250929050565b600060208284031215611ceb57600080fd5b6000611cf984828501611bbf565b91505092915050565b600060208284031215611d1457600080fd5b6000611d2284828501611bd4565b91505092915050565b60008060408385031215611d3e57600080fd5b6000611d4c85828601611bd4565b9250506020611d5d85828601611baa565b9150509250929050565b60008060408385031215611d7a57600080fd5b6000611d8885828601611bd4565b9250506020611d9985828601611bd4565b9150509250929050565b600080600060608486031215611db857600080fd5b6000611dc686828701611bd4565b9350506020611dd786828701611bd4565b9250506040611de886828701611baa565b9150509250925092565b611dfb81612367565b82525050565b611e0a81612379565b82525050565b6000611e1b82612236565b611e258185612241565b9350611e358185602086016123bc565b611e3e816124ae565b840191505092915050565b6000611e56602383612241565b9150611e61826124bf565b604082019050919050565b6000611e79602283612241565b9150611e848261250e565b604082019050919050565b6000611e9c601383612241565b9150611ea78261255d565b602082019050919050565b6000611ebf602283612241565b9150611eca82612586565b604082019050919050565b6000611ee2601d83612241565b9150611eed826125d5565b602082019050919050565b6000611f05602683612241565b9150611f10826125fe565b604082019050919050565b6000611f28602183612241565b9150611f338261264d565b604082019050919050565b6000611f4b602583612241565b9150611f568261269c565b604082019050919050565b6000611f6e602483612241565b9150611f79826126eb565b604082019050919050565b6000611f91602583612241565b9150611f9c8261273a565b604082019050919050565b6000611fb4601f83612241565b9150611fbf82612789565b602082019050919050565b611fd3816123a5565b82525050565b611fe2816123af565b82525050565b6000602082019050611ffd6000830184611df2565b92915050565b60006060820190506120186000830186611df2565b6120256020830185611df2565b6120326040830184611fca565b949350505050565b600060408201905061204f6000830185611df2565b61205c6020830184611fca565b9392505050565b60006020820190506120786000830184611e01565b92915050565b600060208201905081810360008301526120988184611e10565b905092915050565b600060208201905081810360008301526120b981611e49565b9050919050565b600060208201905081810360008301526120d981611e6c565b9050919050565b600060208201905081810360008301526120f981611e8f565b9050919050565b6000602082019050818103600083015261211981611eb2565b9050919050565b6000602082019050818103600083015261213981611ed5565b9050919050565b6000602082019050818103600083015261215981611ef8565b9050919050565b6000602082019050818103600083015261217981611f1b565b9050919050565b6000602082019050818103600083015261219981611f3e565b9050919050565b600060208201905081810360008301526121b981611f61565b9050919050565b600060208201905081810360008301526121d981611f84565b9050919050565b600060208201905081810360008301526121f981611fa7565b9050919050565b60006020820190506122156000830184611fca565b92915050565b60006020820190506122306000830184611fd9565b92915050565b600081519050919050565b600082825260208201905092915050565b600061225d826123a5565b9150612268836123a5565b9250827fffffffffffffffffffffffffffffffffffffffffffffffffffffffffffffffff0382111561229d5761229c612421565b5b828201905092915050565b60006122b3826123a5565b91506122be836123a5565b9250826122ce576122cd612450565b5b828204905092915050565b60006122e4826123a5565b91506122ef836123a5565b9250817fffffffffffffffffffffffffffffffffffffffffffffffffffffffffffffffff048311821515161561232857612327612421565b5b828202905092915050565b600061233e826123a5565b9150612349836123a5565b92508282101561235c5761235b612421565b5b828203905092915050565b600061237282612385565b9050919050565b60008115159050919050565b600073ffffffffffffffffffffffffffffffffffffffff82169050919050565b6000819050919050565b600060ff82169050919050565b60005b838110156123da5780820151818401526020810190506123bf565b838111156123e9576000848401525b50505050565b6000600282049050600182168061240757607f821691505b6020821081141561241b5761241a61247f565b5b50919050565b7f4e487b7100000000000000000000000000000000000000000000000000000000600052601160045260246000fd5b7f4e487b7100000000000000000000000000000000000000000000000000000000600052601260045260246000fd5b7f4e487b7100000000000000000000000000000000000000000000000000000000600052602260045260246000fd5b6000601f19601f8301169050919050565b7f45524332303a207472616e7366657220746f20746865207a65726f206164647260008201527f6573730000000000000000000000000000000000000000000000000000000000602082015250565b7f45524332303a206275726e20616d6f756e7420657863656564732062616c616e60008201527f6365000000000000000000000000000000000000000000000000000000000000602082015250565b7f4e6f7420656e6f75676820657870656374656400000000000000000000000000600082015250565b7f45524332303a20617070726f766520746f20746865207a65726f20616464726560008201527f7373000000000000000000000000000000000000000000000000000000000000602082015250565b7f45524332303a20696e73756666696369656e7420616c6c6f77616e6365000000600082015250565b7f45524332303a207472616e7366657220616d6f756e742065786365656473206260008201527f616c616e63650000000000000000000000000000000000000000000000000000602082015250565b7f45524332303a206275726e2066726f6d20746865207a65726f2061646472657360008201527f7300000000000000000000000000000000000000000000000000000000000000602082015250565b7f45524332303a207472616e736665722066726f6d20746865207a65726f20616460008201527f6472657373000000000000000000000000000000000000000000000000000000602082015250565b7f45524332303a20617070726f76652066726f6d20746865207a65726f2061646460008201527f7265737300000000000000000000000000000000000000000000000000000000602082015250565b7f45524332303a2064656372656173656420616c6c6f77616e63652062656c6f7760008201527f207a65726f000000000000000000000000000000000000000000000000000000602082015250565b7f45524332303a206d696e7420746f20746865207a65726f206164647265737300600082015250565b6127bb81612367565b81146127c657600080fd5b50565b6127d281612379565b81146127dd57600080fd5b50565b6127e9816123a5565b81146127f457600080fd5b5056fea2646970667358221220897ae311abe8afd223aff70c2d7064b4700b3c689ef2b5dfe35df20d3b688a9664736f6c63430008040033a2646970667358221220e1211edb43f1441f870faf6bf1255909e2f7e9151e8a837feb00ac8fb1ddd69864736f6c63430008040033",
  "linkReferences": {},
  "deployedLinkReferences": {}
}