{
    "_format": "hh-sol-artifact-1",
    "contractName": "AMM",
    "sourceName": "contracts/AMM.sol",
    "abi": [
        {
            "inputs": [
                {
                    "internalType": "address",
                    "name": "_token1",
                    "type": "address"
                },
                {
                    "internalType": "address",
                    "name": "_token2",
                    "type": "address"
                }
            ],
            "stateMutability": "nonpayable",
            "type": "constructor"
        },
        {
            "anonymous": false,
            "inputs": [
                {
                    "indexed": true,
                    "internalType": "address",
                    "name": "owner",
                    "type": "address"
                },
                {
                    "indexed": true,
                    "internalType": "address",
                    "name": "spender",
                    "type": "address"
                },
                {
                    "indexed": false,
                    "internalType": "uint256",
                    "name": "value",
                    "type": "uint256"
                }
            ],
            "name": "Approval",
            "type": "event"
        },
        {
            "anonymous": false,
            "inputs": [
                {
                    "indexed": true,
                    "internalType": "address",
                    "name": "from",
                    "type": "address"
                },
                {
                    "indexed": true,
                    "internalType": "address",
                    "name": "to",
                    "type": "address"
                },
                {
                    "indexed": false,
                    "internalType": "uint256",
                    "name": "value",
                    "type": "uint256"
                }
            ],
            "name": "Transfer",
            "type": "event"
        },
        {
            "inputs": [
                {
                    "internalType": "uint256",
                    "name": "_amount1",
                    "type": "uint256"
                },
                {
                    "internalType": "uint256",
                    "name": "_amount2",
                    "type": "uint256"
                }
            ],
            "name": "addLiquidity",
            "outputs": [],
            "stateMutability": "nonpayable",
            "type": "function"
        },
        {
            "inputs": [
                {
                    "internalType": "address",
                    "name": "owner",
                    "type": "address"
                },
                {
                    "internalType": "address",
                    "name": "spender",
                    "type": "address"
                }
            ],
            "name": "allowance",
            "outputs": [
                {
                    "internalType": "uint256",
                    "name": "",
                    "type": "uint256"
                }
            ],
            "stateMutability": "view",
            "type": "function"
        },
        {
            "inputs": [
                {
                    "internalType": "address",
                    "name": "spender",
                    "type": "address"
                },
                {
                    "internalType": "uint256",
                    "name": "amount",
                    "type": "uint256"
                }
            ],
            "name": "approve",
            "outputs": [
                {
                    "internalType": "bool",
                    "name": "",
                    "type": "bool"
                }
            ],
            "stateMutability": "nonpayable",
            "type": "function"
        },
        {
            "inputs": [
                {
                    "internalType": "address",
                    "name": "account",
                    "type": "address"
                }
            ],
            "name": "balanceOf",
            "outputs": [
                {
                    "internalType": "uint256",
                    "name": "",
                    "type": "uint256"
                }
            ],
            "stateMutability": "view",
            "type": "function"
        },
        {
            "inputs": [],
            "name": "decimals",
            "outputs": [
                {
                    "internalType": "uint8",
                    "name": "",
                    "type": "uint8"
                }
            ],
            "stateMutability": "view",
            "type": "function"
        },
        {
            "inputs": [
                {
                    "internalType": "address",
                    "name": "spender",
                    "type": "address"
                },
                {
                    "internalType": "uint256",
                    "name": "subtractedValue",
                    "type": "uint256"
                }
            ],
            "name": "decreaseAllowance",
            "outputs": [
                {
                    "internalType": "bool",
                    "name": "",
                    "type": "bool"
                }
            ],
            "stateMutability": "nonpayable",
            "type": "function"
        },
        {
            "inputs": [
                {
                    "internalType": "uint256",
                    "name": "_amountIn",
                    "type": "uint256"
                },
                {
                    "internalType": "bool",
                    "name": "_direction",
                    "type": "bool"
                }
            ],
            "name": "expectOut",
            "outputs": [
                {
                    "internalType": "uint256",
                    "name": "_expectedOutAmount",
                    "type": "uint256"
                }
            ],
            "stateMutability": "view",
            "type": "function"
        },
        {
            "inputs": [],
            "name": "getK",
            "outputs": [
                {
                    "internalType": "uint256",
                    "name": "",
                    "type": "uint256"
                }
            ],
            "stateMutability": "view",
            "type": "function"
        },
        {
            "inputs": [],
            "name": "getRatio",
            "outputs": [
                {
                    "internalType": "uint256",
                    "name": "",
                    "type": "uint256"
                }
            ],
            "stateMutability": "view",
            "type": "function"
        },
        {
            "inputs": [
                {
                    "internalType": "address",
                    "name": "spender",
                    "type": "address"
                },
                {
                    "internalType": "uint256",
                    "name": "addedValue",
                    "type": "uint256"
                }
            ],
            "name": "increaseAllowance",
            "outputs": [
                {
                    "internalType": "bool",
                    "name": "",
                    "type": "bool"
                }
            ],
            "stateMutability": "nonpayable",
            "type": "function"
        },
        {
            "inputs": [],
            "name": "name",
            "outputs": [
                {
                    "internalType": "string",
                    "name": "",
                    "type": "string"
                }
            ],
            "stateMutability": "view",
            "type": "function"
        },
        {
            "inputs": [
                {
                    "internalType": "uint256",
                    "name": "_LPtokens",
                    "type": "uint256"
                }
            ],
            "name": "removeLiquidity",
            "outputs": [],
            "stateMutability": "nonpayable",
            "type": "function"
        },
        {
            "inputs": [
                {
                    "internalType": "uint256",
                    "name": "_amount1",
                    "type": "uint256"
                }
            ],
            "name": "requiredAmount",
            "outputs": [
                {
                    "internalType": "uint256",
                    "name": "",
                    "type": "uint256"
                }
            ],
            "stateMutability": "view",
            "type": "function"
        },
        {
            "inputs": [],
            "name": "reserves1",
            "outputs": [
                {
                    "internalType": "uint256",
                    "name": "",
                    "type": "uint256"
                }
            ],
            "stateMutability": "view",
            "type": "function"
        },
        {
            "inputs": [],
            "name": "reserves2",
            "outputs": [
                {
                    "internalType": "uint256",
                    "name": "",
                    "type": "uint256"
                }
            ],
            "stateMutability": "view",
            "type": "function"
        },
        {
            "inputs": [
                {
                    "internalType": "uint256",
                    "name": "_amountIn",
                    "type": "uint256"
                },
                {
                    "internalType": "uint256",
                    "name": "_expectedOutAmount",
                    "type": "uint256"
                },
                {
                    "internalType": "bool",
                    "name": "_direction",
                    "type": "bool"
                }
            ],
            "name": "swap",
            "outputs": [],
            "stateMutability": "nonpayable",
            "type": "function"
        },
        {
            "inputs": [],
            "name": "symbol",
            "outputs": [
                {
                    "internalType": "string",
                    "name": "",
                    "type": "string"
                }
            ],
            "stateMutability": "view",
            "type": "function"
        },
        {
            "inputs": [],
            "name": "token1",
            "outputs": [
                {
                    "internalType": "address",
                    "name": "",
                    "type": "address"
                }
            ],
            "stateMutability": "view",
            "type": "function"
        },
        {
            "inputs": [],
            "name": "token2",
            "outputs": [
                {
                    "internalType": "address",
                    "name": "",
                    "type": "address"
                }
            ],
            "stateMutability": "view",
            "type": "function"
        },
        {
            "inputs": [],
            "name": "totalSupply",
            "outputs": [
                {
                    "internalType": "uint256",
                    "name": "",
                    "type": "uint256"
                }
            ],
            "stateMutability": "view",
            "type": "function"
        },
        {
            "inputs": [
                {
                    "internalType": "address",
                    "name": "to",
                    "type": "address"
                },
                {
                    "internalType": "uint256",
                    "name": "amount",
                    "type": "uint256"
                }
            ],
            "name": "transfer",
            "outputs": [
                {
                    "internalType": "bool",
                    "name": "",
                    "type": "bool"
                }
            ],
            "stateMutability": "nonpayable",
            "type": "function"
        },
        {
            "inputs": [
                {
                    "internalType": "address",
                    "name": "from",
                    "type": "address"
                },
                {
                    "internalType": "address",
                    "name": "to",
                    "type": "address"
                },
                {
                    "internalType": "uint256",
                    "name": "amount",
                    "type": "uint256"
                }
            ],
            "name": "transferFrom",
            "outputs": [
                {
                    "internalType": "bool",
                    "name": "",
                    "type": "bool"
                }
            ],
            "stateMutability": "nonpayable",
            "type": "function"
        }
    ],
    "bytecode": "0x60c06040523480156200001157600080fd5b5060405162002cd238038062002cd2833981810160405281019062000037919062000214565b6040518060400160405280600981526020017f4c5020546f6b656e7300000000000000000000000000000000000000000000008152506040518060400160405280600281526020017f4c500000000000000000000000000000000000000000000000000000000000008152508160039080519060200190620000bb9291906200014d565b508060049080519060200190620000d49291906200014d565b5050508173ffffffffffffffffffffffffffffffffffffffff1660808173ffffffffffffffffffffffffffffffffffffffff1660601b815250508073ffffffffffffffffffffffffffffffffffffffff1660a08173ffffffffffffffffffffffffffffffffffffffff1660601b81525050505062000308565b8280546200015b9062000289565b90600052602060002090601f0160209004810192826200017f5760008555620001cb565b82601f106200019a57805160ff1916838001178555620001cb565b82800160010185558215620001cb579182015b82811115620001ca578251825591602001919060010190620001ad565b5b509050620001da9190620001de565b5090565b5b80821115620001f9576000816000905550600101620001df565b5090565b6000815190506200020e81620002ee565b92915050565b600080604083850312156200022857600080fd5b60006200023885828601620001fd565b92505060206200024b85828601620001fd565b9150509250929050565b6000620002628262000269565b9050919050565b600073ffffffffffffffffffffffffffffffffffffffff82169050919050565b60006002820490506001821680620002a257607f821691505b60208210811415620002b957620002b8620002bf565b5b50919050565b7f4e487b7100000000000000000000000000000000000000000000000000000000600052602260045260246000fd5b620002f98162000255565b81146200030557600080fd5b50565b60805160601c60a05160601c6129746200035e600039600081816106100152818161072401528181610c3c0152610dfd0152600081816108c801528181610b8e01528181610d4d0152610ff201526129746000f3fe608060405234801561001057600080fd5b50600436106101425760003560e01c806395d89b41116100b8578063b9b4c4631161007c578063b9b4c463146103b1578063d21220a7146103cf578063dd62ed3e146103ed578063e9e2daf41461041d578063ec1ebd7a1461043b578063ee39e7a01461045957610142565b806395d89b41146102fb5780639c8f9f23146103195780639cd441da14610335578063a457c2d714610351578063a9059cbb1461038157610142565b806325be124e1161010a57806325be124e146102135780632bec60fe14610231578063313ce5671461024d578063395093511461026b57806354de7b291461029b57806370a08231146102cb57610142565b806301e4b2d61461014757806306fdde0314610177578063095ea7b31461019557806318160ddd146101c557806323b872dd146101e3575b600080fd5b610161600480360381019061015c9190611e42565b610477565b60405161016e9190612347565b60405180910390f35b61017f610520565b60405161018c9190612195565b60405180910390f35b6101af60048036038101906101aa9190611db4565b6105b2565b6040516101bc919061217a565b60405180910390f35b6101cd6105d5565b6040516101da9190612347565b60405180910390f35b6101fd60048036038101906101f89190611d65565b6105df565b60405161020a919061217a565b60405180910390f35b61021b61060e565b60405161022891906120ff565b60405180910390f35b61024b60048036038101906102469190611eba565b610632565b005b6102556109b0565b6040516102629190612362565b60405180910390f35b61028560048036038101906102809190611db4565b6109b9565b604051610292919061217a565b60405180910390f35b6102b560048036038101906102b09190611e19565b6109f0565b6040516102c29190612347565b60405180910390f35b6102e560048036038101906102e09190611d00565b610a14565b6040516102f29190612347565b60405180910390f35b610303610a5c565b6040516103109190612195565b60405180910390f35b610333600480360381019061032e9190611e19565b610aee565b005b61034f600480360381019061034a9190611e7e565b610d2b565b005b61036b60048036038101906103669190611db4565b610f50565b604051610378919061217a565b60405180910390f35b61039b60048036038101906103969190611db4565b610fc7565b6040516103a8919061217a565b60405180910390f35b6103b9610fea565b6040516103c69190612347565b60405180910390f35b6103d7610ff0565b6040516103e491906120ff565b60405180910390f35b61040760048036038101906104029190611d29565b611014565b6040516104149190612347565b60405180910390f35b61042561109b565b6040516104329190612347565b60405180910390f35b6104436110a1565b6040516104509190612347565b60405180910390f35b6104616110b8565b60405161046e9190612347565b60405180910390f35b600080600554905060006006549050600060648661049591906123ef565b905084156104dc5780866104a9919061247a565b836104b49190612399565b82846104c09190612420565b6104ca91906123ef565b826104d5919061247a565b9350610517565b80866104e8919061247a565b826104f39190612399565b83836104ff9190612420565b61050991906123ef565b83610514919061247a565b93505b50505092915050565b60606003805461052f90612536565b80601f016020809104026020016040519081016040528092919081815260200182805461055b90612536565b80156105a85780601f1061057d576101008083540402835291602001916105a8565b820191906000526020600020905b81548152906001019060200180831161058b57829003601f168201915b5050505050905090565b6000806105bd6110cf565b90506105ca8185856110d7565b600191505092915050565b6000600254905090565b6000806105ea6110cf565b90506105f78582856112a2565b61060285858561132e565b60019150509392505050565b7f000000000000000000000000000000000000000000000000000000000000000081565b6000831161063f57600080fd5b6000600554905060006006549050600060648661065c91906123ef565b905083156108085760008187610672919061247a565b8461067d9190612399565b83856106899190612420565b61069391906123ef565b8361069e919061247a565b90506106df6040518060400160405280600a81526020017f416d6f756e74206f757400000000000000000000000000000000000000000000815250826115af565b85811015610722576040517f08c379a000000000000000000000000000000000000000000000000000000000815260040161071990612227565b60405180910390fd5b7f000000000000000000000000000000000000000000000000000000000000000073ffffffffffffffffffffffffffffffffffffffff1663a9059cbb33836040518363ffffffff1660e01b815260040161077d929190612151565b602060405180830381600087803b15801561079757600080fd5b505af11580156107ab573d6000803e3d6000fd5b505050506040513d601f19601f820116820180604052508101906107cf9190611df0565b5086600560008282546107e29190612399565b9250508190555080600660008282546107fb919061247a565b92505081905550506109a8565b60008187610816919061247a565b836108219190612399565b848461082d9190612420565b61083791906123ef565b84610842919061247a565b90506108836040518060400160405280600a81526020017f416d6f756e74206f757400000000000000000000000000000000000000000000815250826115af565b858110156108c6576040517f08c379a00000000000000000000000000000000000000000000000000000000081526004016108bd90612227565b60405180910390fd5b7f000000000000000000000000000000000000000000000000000000000000000073ffffffffffffffffffffffffffffffffffffffff1663a9059cbb33836040518363ffffffff1660e01b8152600401610921929190612151565b602060405180830381600087803b15801561093b57600080fd5b505af115801561094f573d6000803e3d6000fd5b505050506040513d601f19601f820116820180604052508101906109739190611df0565b5086600660008282546109869190612399565b92505081905550806005600082825461099f919061247a565b92505081905550505b505050505050565b60006012905090565b6000806109c46110cf565b90506109e58185856109d68589611014565b6109e09190612399565b6110d7565b600191505092915050565b600060055460065483610a039190612420565b610a0d91906123ef565b9050919050565b60008060008373ffffffffffffffffffffffffffffffffffffffff1673ffffffffffffffffffffffffffffffffffffffff168152602001908152602001600020549050919050565b606060048054610a6b90612536565b80601f0160208091040260200160405190810160405280929190818152602001828054610a9790612536565b8015610ae45780601f10610ab957610100808354040283529160200191610ae4565b820191906000526020600020905b815481529060010190602001808311610ac757829003601f168201915b5050505050905090565b6000610af86105d5565b9050808210610b0657600080fd5b610b0f33610a14565b821115610b1b57600080fd5b600081606484610b2b9190612420565b610b3591906123ef565b90506000606482600554610b499190612420565b610b5391906123ef565b90506000606483600654610b679190612420565b610b7191906123ef565b9050600082118015610b835750600081115b610b8c57600080fd5b7f000000000000000000000000000000000000000000000000000000000000000073ffffffffffffffffffffffffffffffffffffffff1663a9059cbb33846040518363ffffffff1660e01b8152600401610be7929190612151565b602060405180830381600087803b158015610c0157600080fd5b505af1158015610c15573d6000803e3d6000fd5b505050506040513d601f19601f82011682018060405250810190610c399190611df0565b507f000000000000000000000000000000000000000000000000000000000000000073ffffffffffffffffffffffffffffffffffffffff1663a9059cbb33836040518363ffffffff1660e01b8152600401610c95929190612151565b602060405180830381600087803b158015610caf57600080fd5b505af1158015610cc3573d6000803e3d6000fd5b505050506040513d601f19601f82011682018060405250810190610ce79190611df0565b50610cf2338661164b565b8160056000828254610d04919061247a565b925050819055508060066000828254610d1d919061247a565b925050819055505050505050565b60006006541115610d4b57610d3f826109f0565b8114610d4a57600080fd5b5b7f000000000000000000000000000000000000000000000000000000000000000073ffffffffffffffffffffffffffffffffffffffff166323b872dd3330856040518463ffffffff1660e01b8152600401610da89392919061211a565b602060405180830381600087803b158015610dc257600080fd5b505af1158015610dd6573d6000803e3d6000fd5b505050506040513d601f19601f82011682018060405250810190610dfa9190611df0565b507f000000000000000000000000000000000000000000000000000000000000000073ffffffffffffffffffffffffffffffffffffffff166323b872dd3330846040518463ffffffff1660e01b8152600401610e589392919061211a565b602060405180830381600087803b158015610e7257600080fd5b505af1158015610e86573d6000803e3d6000fd5b505050506040513d601f19601f82011682018060405250810190610eaa9190611df0565b5060006006541415610ed857610ed333610ece8385610ec99190612420565b611822565b611b00565b610f1a565b610f19336064600554606486610eee9190612420565b610ef891906123ef565b610f006105d5565b610f0a9190612420565b610f1491906123ef565b611b00565b5b8160056000828254610f2c9190612399565b925050819055508060066000828254610f459190612399565b925050819055505050565b600080610f5b6110cf565b90506000610f698286611014565b905083811015610fae576040517f08c379a0000000000000000000000000000000000000000000000000000000008152600401610fa590612307565b60405180910390fd5b610fbb82868684036110d7565b60019250505092915050565b600080610fd26110cf565b9050610fdf81858561132e565b600191505092915050565b60055481565b7f000000000000000000000000000000000000000000000000000000000000000081565b6000600160008473ffffffffffffffffffffffffffffffffffffffff1673ffffffffffffffffffffffffffffffffffffffff16815260200190815260200160002060008373ffffffffffffffffffffffffffffffffffffffff1673ffffffffffffffffffffffffffffffffffffffff16815260200190815260200160002054905092915050565b60065481565b60006006546005546110b391906123ef565b905090565b60006006546005546110ca9190612420565b905090565b600033905090565b600073ffffffffffffffffffffffffffffffffffffffff168373ffffffffffffffffffffffffffffffffffffffff161415611147576040517f08c379a000000000000000000000000000000000000000000000000000000000815260040161113e906122e7565b60405180910390fd5b600073ffffffffffffffffffffffffffffffffffffffff168273ffffffffffffffffffffffffffffffffffffffff1614156111b7576040517f08c379a00000000000000000000000000000000000000000000000000000000081526004016111ae90612247565b60405180910390fd5b80600160008573ffffffffffffffffffffffffffffffffffffffff1673ffffffffffffffffffffffffffffffffffffffff16815260200190815260200160002060008473ffffffffffffffffffffffffffffffffffffffff1673ffffffffffffffffffffffffffffffffffffffff168152602001908152602001600020819055508173ffffffffffffffffffffffffffffffffffffffff168373ffffffffffffffffffffffffffffffffffffffff167f8c5be1e5ebec7d5bd14f71427d1e84f3dd0314c0f7b2291e5b200ac8c7c3b925836040516112959190612347565b60405180910390a3505050565b60006112ae8484611014565b90507fffffffffffffffffffffffffffffffffffffffffffffffffffffffffffffffff8114611328578181101561131a576040517f08c379a000000000000000000000000000000000000000000000000000000000815260040161131190612267565b60405180910390fd5b61132784848484036110d7565b5b50505050565b600073ffffffffffffffffffffffffffffffffffffffff168373ffffffffffffffffffffffffffffffffffffffff16141561139e576040517f08c379a0000000000000000000000000000000000000000000000000000000008152600401611395906122c7565b60405180910390fd5b600073ffffffffffffffffffffffffffffffffffffffff168273ffffffffffffffffffffffffffffffffffffffff16141561140e576040517f08c379a0000000000000000000000000000000000000000000000000000000008152600401611405906121e7565b60405180910390fd5b611419838383611c60565b60008060008573ffffffffffffffffffffffffffffffffffffffff1673ffffffffffffffffffffffffffffffffffffffff1681526020019081526020016000205490508181101561149f576040517f08c379a000000000000000000000000000000000000000000000000000000000815260040161149690612287565b60405180910390fd5b8181036000808673ffffffffffffffffffffffffffffffffffffffff1673ffffffffffffffffffffffffffffffffffffffff16815260200190815260200160002081905550816000808573ffffffffffffffffffffffffffffffffffffffff1673ffffffffffffffffffffffffffffffffffffffff16815260200190815260200160002060008282546115329190612399565b925050819055508273ffffffffffffffffffffffffffffffffffffffff168473ffffffffffffffffffffffffffffffffffffffff167fddf252ad1be2c89b69c2b068fc378daa952ba7f163c4a11628f55a4df523b3ef846040516115969190612347565b60405180910390a36115a9848484611c65565b50505050565b61164782826040516024016115c59291906121b7565b6040516020818303038152906040527f9710a9d0000000000000000000000000000000000000000000000000000000007bffffffffffffffffffffffffffffffffffffffffffffffffffffffff19166020820180517bffffffffffffffffffffffffffffffffffffffffffffffffffffffff8381831617835250505050611c6a565b5050565b600073ffffffffffffffffffffffffffffffffffffffff168273ffffffffffffffffffffffffffffffffffffffff1614156116bb576040517f08c379a00000000000000000000000000000000000000000000000000000000081526004016116b2906122a7565b60405180910390fd5b6116c782600083611c60565b60008060008473ffffffffffffffffffffffffffffffffffffffff1673ffffffffffffffffffffffffffffffffffffffff1681526020019081526020016000205490508181101561174d576040517f08c379a000000000000000000000000000000000000000000000000000000000815260040161174490612207565b60405180910390fd5b8181036000808573ffffffffffffffffffffffffffffffffffffffff1673ffffffffffffffffffffffffffffffffffffffff1681526020019081526020016000208190555081600260008282546117a4919061247a565b92505081905550600073ffffffffffffffffffffffffffffffffffffffff168373ffffffffffffffffffffffffffffffffffffffff167fddf252ad1be2c89b69c2b068fc378daa952ba7f163c4a11628f55a4df523b3ef846040516118099190612347565b60405180910390a361181d83600084611c65565b505050565b6000808214156118355760009050611afb565b60006001905060008390506000608082901c111561185c57608081901c9050604082901b91505b6000604082901c111561187857604081901c9050602082901b91505b6000602082901c111561189457602081901c9050601082901b91505b6000601082901c11156118b057601081901c9050600882901b91505b6000600882901c11156118cc57600881901c9050600482901b91505b6000600482901c11156118e857600481901c9050600282901b91505b6000600282901c11156118fd57600182901b91505b6001828581611935577f4e487b7100000000000000000000000000000000000000000000000000000000600052601260045260246000fd5b048301901c91506001828581611974577f4e487b7100000000000000000000000000000000000000000000000000000000600052601260045260246000fd5b048301901c915060018285816119b3577f4e487b7100000000000000000000000000000000000000000000000000000000600052601260045260246000fd5b048301901c915060018285816119f2577f4e487b7100000000000000000000000000000000000000000000000000000000600052601260045260246000fd5b048301901c91506001828581611a31577f4e487b7100000000000000000000000000000000000000000000000000000000600052601260045260246000fd5b048301901c91506001828581611a70577f4e487b7100000000000000000000000000000000000000000000000000000000600052601260045260246000fd5b048301901c91506001828581611aaf577f4e487b7100000000000000000000000000000000000000000000000000000000600052601260045260246000fd5b048301901c9150611af682838681611af0577f4e487b7100000000000000000000000000000000000000000000000000000000600052601260045260246000fd5b04611c93565b925050505b919050565b600073ffffffffffffffffffffffffffffffffffffffff168273ffffffffffffffffffffffffffffffffffffffff161415611b70576040517f08c379a0000000000000000000000000000000000000000000000000000000008152600401611b6790612327565b60405180910390fd5b611b7c60008383611c60565b8060026000828254611b8e9190612399565b92505081905550806000808473ffffffffffffffffffffffffffffffffffffffff1673ffffffffffffffffffffffffffffffffffffffff1681526020019081526020016000206000828254611be39190612399565b925050819055508173ffffffffffffffffffffffffffffffffffffffff16600073ffffffffffffffffffffffffffffffffffffffff167fddf252ad1be2c89b69c2b068fc378daa952ba7f163c4a11628f55a4df523b3ef83604051611c489190612347565b60405180910390a3611c5c60008383611c65565b5050565b505050565b505050565b60008151905060006a636f6e736f6c652e6c6f679050602083016000808483855afa5050505050565b6000818310611ca25781611ca4565b825b905092915050565b600081359050611cbb816128f9565b92915050565b600081359050611cd081612910565b92915050565b600081519050611ce581612910565b92915050565b600081359050611cfa81612927565b92915050565b600060208284031215611d1257600080fd5b6000611d2084828501611cac565b91505092915050565b60008060408385031215611d3c57600080fd5b6000611d4a85828601611cac565b9250506020611d5b85828601611cac565b9150509250929050565b600080600060608486031215611d7a57600080fd5b6000611d8886828701611cac565b9350506020611d9986828701611cac565b9250506040611daa86828701611ceb565b9150509250925092565b60008060408385031215611dc757600080fd5b6000611dd585828601611cac565b9250506020611de685828601611ceb565b9150509250929050565b600060208284031215611e0257600080fd5b6000611e1084828501611cd6565b91505092915050565b600060208284031215611e2b57600080fd5b6000611e3984828501611ceb565b91505092915050565b60008060408385031215611e5557600080fd5b6000611e6385828601611ceb565b9250506020611e7485828601611cc1565b9150509250929050565b60008060408385031215611e9157600080fd5b6000611e9f85828601611ceb565b9250506020611eb085828601611ceb565b9150509250929050565b600080600060608486031215611ecf57600080fd5b6000611edd86828701611ceb565b9350506020611eee86828701611ceb565b9250506040611eff86828701611cc1565b9150509250925092565b611f12816124ae565b82525050565b611f21816124c0565b82525050565b6000611f328261237d565b611f3c8185612388565b9350611f4c818560208601612503565b611f55816125f5565b840191505092915050565b6000611f6d602383612388565b9150611f7882612606565b604082019050919050565b6000611f90602283612388565b9150611f9b82612655565b604082019050919050565b6000611fb3601383612388565b9150611fbe826126a4565b602082019050919050565b6000611fd6602283612388565b9150611fe1826126cd565b604082019050919050565b6000611ff9601d83612388565b91506120048261271c565b602082019050919050565b600061201c602683612388565b915061202782612745565b604082019050919050565b600061203f602183612388565b915061204a82612794565b604082019050919050565b6000612062602583612388565b915061206d826127e3565b604082019050919050565b6000612085602483612388565b915061209082612832565b604082019050919050565b60006120a8602583612388565b91506120b382612881565b604082019050919050565b60006120cb601f83612388565b91506120d6826128d0565b602082019050919050565b6120ea816124ec565b82525050565b6120f9816124f6565b82525050565b60006020820190506121146000830184611f09565b92915050565b600060608201905061212f6000830186611f09565b61213c6020830185611f09565b61214960408301846120e1565b949350505050565b60006040820190506121666000830185611f09565b61217360208301846120e1565b9392505050565b600060208201905061218f6000830184611f18565b92915050565b600060208201905081810360008301526121af8184611f27565b905092915050565b600060408201905081810360008301526121d18185611f27565b90506121e060208301846120e1565b9392505050565b6000602082019050818103600083015261220081611f60565b9050919050565b6000602082019050818103600083015261222081611f83565b9050919050565b6000602082019050818103600083015261224081611fa6565b9050919050565b6000602082019050818103600083015261226081611fc9565b9050919050565b6000602082019050818103600083015261228081611fec565b9050919050565b600060208201905081810360008301526122a08161200f565b9050919050565b600060208201905081810360008301526122c081612032565b9050919050565b600060208201905081810360008301526122e081612055565b9050919050565b6000602082019050818103600083015261230081612078565b9050919050565b600060208201905081810360008301526123208161209b565b9050919050565b60006020820190508181036000830152612340816120be565b9050919050565b600060208201905061235c60008301846120e1565b92915050565b600060208201905061237760008301846120f0565b92915050565b600081519050919050565b600082825260208201905092915050565b60006123a4826124ec565b91506123af836124ec565b9250827fffffffffffffffffffffffffffffffffffffffffffffffffffffffffffffffff038211156123e4576123e3612568565b5b828201905092915050565b60006123fa826124ec565b9150612405836124ec565b92508261241557612414612597565b5b828204905092915050565b600061242b826124ec565b9150612436836124ec565b9250817fffffffffffffffffffffffffffffffffffffffffffffffffffffffffffffffff048311821515161561246f5761246e612568565b5b828202905092915050565b6000612485826124ec565b9150612490836124ec565b9250828210156124a3576124a2612568565b5b828203905092915050565b60006124b9826124cc565b9050919050565b60008115159050919050565b600073ffffffffffffffffffffffffffffffffffffffff82169050919050565b6000819050919050565b600060ff82169050919050565b60005b83811015612521578082015181840152602081019050612506565b83811115612530576000848401525b50505050565b6000600282049050600182168061254e57607f821691505b60208210811415612562576125616125c6565b5b50919050565b7f4e487b7100000000000000000000000000000000000000000000000000000000600052601160045260246000fd5b7f4e487b7100000000000000000000000000000000000000000000000000000000600052601260045260246000fd5b7f4e487b7100000000000000000000000000000000000000000000000000000000600052602260045260246000fd5b6000601f19601f8301169050919050565b7f45524332303a207472616e7366657220746f20746865207a65726f206164647260008201527f6573730000000000000000000000000000000000000000000000000000000000602082015250565b7f45524332303a206275726e20616d6f756e7420657863656564732062616c616e60008201527f6365000000000000000000000000000000000000000000000000000000000000602082015250565b7f4e6f7420656e6f75676820657870656374656400000000000000000000000000600082015250565b7f45524332303a20617070726f766520746f20746865207a65726f20616464726560008201527f7373000000000000000000000000000000000000000000000000000000000000602082015250565b7f45524332303a20696e73756666696369656e7420616c6c6f77616e6365000000600082015250565b7f45524332303a207472616e7366657220616d6f756e742065786365656473206260008201527f616c616e63650000000000000000000000000000000000000000000000000000602082015250565b7f45524332303a206275726e2066726f6d20746865207a65726f2061646472657360008201527f7300000000000000000000000000000000000000000000000000000000000000602082015250565b7f45524332303a207472616e736665722066726f6d20746865207a65726f20616460008201527f6472657373000000000000000000000000000000000000000000000000000000602082015250565b7f45524332303a20617070726f76652066726f6d20746865207a65726f2061646460008201527f7265737300000000000000000000000000000000000000000000000000000000602082015250565b7f45524332303a2064656372656173656420616c6c6f77616e63652062656c6f7760008201527f207a65726f000000000000000000000000000000000000000000000000000000602082015250565b7f45524332303a206d696e7420746f20746865207a65726f206164647265737300600082015250565b612902816124ae565b811461290d57600080fd5b50565b612919816124c0565b811461292457600080fd5b50565b612930816124ec565b811461293b57600080fd5b5056fea26469706673582212206463c0d2872a52ab1d721aff4a7cdc472d129d23300d6b211b9e9cd702081cfd64736f6c63430008040033",
    "linkReferences": {},
    "deployedLinkReferences": {}
}